05004800474800000795000   74071699270092702370345000000000926000000017000578000000017000578SCANDINAVIAN1172339950644OSLO         NO 301600000     1000N0421242 4 01927100503            AI        HANGER/VIDAR MR     092509OSLQ6C OSL                     60491771SCANDINA                  00000000000000000000000000000000000000000000000000022453812
05004800474801000795000   74071699270092702370329000000000926000000290300578000000290300578SCANDINAVIAN1172339950642OSLO         NO 301600000     1000N0421222 4 01927100503            AI        KARLSEN/HELGE MR    092509SVGSKJ OSLSKJ SVG              60491771SCANDINA                  000000000000000000000000000000000000000000000000000AB84305 
05004800474800000163000   74071699270092702321546000000000926000000145200578000000145200578SCANDINAVIAN1172339939897OSLO         NO 301600000     1000N0418232 4 01927100503            AI        CASTBERG/ALEX     MR092409OSLSKJ SVG                     60491771SCANDINA                  00000000000000000000000000000000000000000000000000012875432
05004800474801000163000   74071699271092712564811000000000927000000145200578000000145200578SCANDINAVIAN1172339951123OSLO         NO 301600000     1000N0715812 4 01927100503            AI        HOGHEIM/SVERRE MR   092509OSLSKJ SVG                     60491771SCANDINA                  000000000000000000000000000000000000000000000000000        
05004800474800000155000   74263309269000001621109000000000924000000264300578000000264300578CSA AIRLINE 0643677447426OSLO         NO 321700000     1000N0240452 4 01927100503            AI        HLAC/KARI MS        113009OSLOKA PRGOKA KRKOKA PRGOKA OSL60230192BERG-HANSEN               000000000000000000000000000000000000000000000000000        
05004800474810200871000   74940479270415792680024000000000924000000761000578000000761000578QATAR AIRWAY3677469111   OSLO         NO 313600000     1000N043964  1 019271C0503            AI        LUND/IANANA         093009OSLSKH ZRHQRH DOHQRH LHRSKH OSL        AMERICAN EXPRESS          000000000000000000000000000000000000000000000000000AD55670 
05004800474810600886000   74071699268092681557908000000000925000000063501578000000063501578NORWEGIAN AI3287040319966FORNEBU      NO 321100000     1000N      1 1 00927100503            AI        LENE STRAND BORG    092409BGODYB SVG                     60492596Norwegia                  000000000000000000000000000000000000000000000000000        
05004800474830100244000   74541099270005961042038000000000926000000081453578000000069700208SAS         02328213722  COPENHAGEN   DK 301600000     1000N0536381 4 019271C0503            AI        MANSURBEG/KARL  MR  100509CPHSKL OSL                     17492974SAS INTERNET OFFICE       00000000000000000000000000000000000000000000000000076001234
05004800474810500647000   74071699268092681398444000000000925000000082900578000000082900578NORWEGIAN AI3287040727153FORNEBU      NO 321100000     1000N      1 1 00927100503            AI        KRISTIN A WEINBACH  100309OSLDYT DBV                     60492596Norwegia                  000000000000000000000000000000000000000000000000000        
05004800474812500647000   74071699268092681396513000000000925000000163500578000000163500578NORWEGIAN AI3287040711512FORNEBU      NO 321100000     1000N      1 1 00927100503            AI        ULRIKA BANGSETH     093009PSADYZ OSL                     60492596Norwegia                  00000000000000000000000000000000000000000000000000034712390
05004800474810200806000   74571009268340002511048000000000925000000406781578000008577500352RADISSON SAS 1919 HOTEL  REYKJAVIK1   IS 701100000     1000N0376682 1 0192710                                                                                                                                                                                
05004800475810400367000   74571009269340000793639000000000923000000262356578000000224500208HILTON CPH AIRPORT       KASTRUP      DK 353500000     1000N0432582 1 909271B                                                                                                                                                                                
05004800475810000243000   74071699270092702497411000000000926000000085601578000000085601578NORWEGIAN AI3287040789184FORNEBU      NO 321100000     1000N0454959 4 01927100503            AI        WALLY MR ANDERSEN   100409KRSDYT OSL                     60492596Norwegia                  000000000000000000000000000000000000000000000000000        
05004800475810000924000   74071699269092692246706000000000926000000094400578000000094400578NORWEGIAN AI3287040695888FORNEBU      NO 321100000     1000N      1 1 00927100503            AI        HANS PETTER LINTHO  092309ARNDYZ OSL                     60492596Norwegia                  000000000000000000000000000000000000000000000000000        
06004800476810000924000   74071699269092692258321000000000926000000099400578000000099400578NORWEGIAN AI3287040538865FORNEBU      NO 321100000     1000N      1 1 00927100603            AI        HANS PETTER LINTHO  092309ARNDYZ OSL                     60492596Norwegia                  000000000000000000000000000000000000000000000000000        
07004800476810030045000   74925059271000013879221000000000926000000140000578000000140000578CC VEST ØVRE PLAN        OSLO         NO 601100000   9 1000N0593395 2 059271H                                                                                                                                                                                
05004800476840080048000   74071699268092681486942000000000924000000215100578000000215100578SAS         1173677447626OSLO         NO 301600000     1000N0404252 4 01927100503            AI        STRAND/RUNE MR      092509BGOSKD KSU                     60230192SCANDINA                  000000000000000000000000000000000000000000000000000        
        