05004800474800000795000   74071699270092702370345000000000926000000017000578000000017000578SCANDINAVIAN1172339950644OSLO         NO 301600000     1000N0421242 4 01927100503            AI        HANGER/VIDAR MR     092509OSLQ6C OSL                     60491771SCANDINA                  00000000000000000000000000000000000000000000000000022453812
05004800474801000795000   74071699270092702370329000000000926000000290300578000000290300578SCANDINAVIAN1172339950642OSLO         NO 301600000     1000N0421222 4 01927100503            AI        KARLSEN/HELGE MR    092509SVGSKJ OSLSKJ SVG              60491771SCANDINA                  000000000000000000000000000000000000000000000000000AB84305 
05004800474800000163000   74071699270092702321546000000000926000000145200578000000145200578SCANDINAVIAN1172339939897OSLO         NO 301600000     1000N0418232 4 01927100503            AI        CASTBERG/ALEX     MR092409OSLSKJ SVG                     60491771SCANDINA                  00000000000000000000000000000000000000000000000000012875432
